{
  "_format": "hh-sol-artifact-1",
  "contractName": "Factory",
  "sourceName": "contracts/Factory.sol",
  "abi": [
    {
      "inputs": [
        {
          "internalType": "address",
          "name": "trustedForwarder",
          "type": "address"
        }
      ],
      "stateMutability": "payable",
      "type": "constructor"
    },
    {
      "inputs": [
        {
          "internalType": "address",
          "name": "owner",
          "type": "address"
        }
      ],
      "name": "OwnableInvalidOwner",
      "type": "error"
    },
    {
      "inputs": [
        {
          "internalType": "address",
          "name": "account",
          "type": "address"
        }
      ],
      "name": "OwnableUnauthorizedAccount",
      "type": "error"
    },
    {
      "anonymous": false,
      "inputs": [
        {
          "indexed": false,
          "internalType": "address",
          "name": "_contract",
          "type": "address"
        }
      ],
      "name": "CompanyAccountCreated",
      "type": "event"
    },
    {
      "anonymous": false,
      "inputs": [
        {
          "indexed": false,
          "internalType": "address",
          "name": "_contract",
          "type": "address"
        }
      ],
      "name": "CustomerAccountCreated",
      "type": "event"
    },
    {
      "anonymous": false,
      "inputs": [
        {
          "indexed": true,
          "internalType": "address",
          "name": "previousOwner",
          "type": "address"
        },
        {
          "indexed": true,
          "internalType": "address",
          "name": "newOwner",
          "type": "address"
        }
      ],
      "name": "OwnershipTransferred",
      "type": "event"
    },
    {
      "stateMutability": "payable",
      "type": "fallback"
    },
    {
      "inputs": [],
      "name": "TRUSTED_FORWARDER",
      "outputs": [
        {
          "internalType": "address",
          "name": "",
          "type": "address"
        }
      ],
      "stateMutability": "view",
      "type": "function"
    },
    {
      "inputs": [
        {
          "internalType": "address",
          "name": "",
          "type": "address"
        }
      ],
      "name": "accounts",
      "outputs": [
        {
          "internalType": "enum Factory.AccountType",
          "name": "",
          "type": "uint8"
        }
      ],
      "stateMutability": "view",
      "type": "function"
    },
    {
      "inputs": [
        {
          "internalType": "address",
          "name": "",
          "type": "address"
        }
      ],
      "name": "contracts",
      "outputs": [
        {
          "internalType": "address",
          "name": "",
          "type": "address"
        }
      ],
      "stateMutability": "view",
      "type": "function"
    },
    {
      "inputs": [
        {
          "internalType": "address",
          "name": "_token",
          "type": "address"
        }
      ],
      "name": "delistERC20Token",
      "outputs": [],
      "stateMutability": "nonpayable",
      "type": "function"
    },
    {
      "inputs": [
        {
          "components": [
            {
              "internalType": "string",
              "name": "name",
              "type": "string"
            },
            {
              "internalType": "string",
              "name": "logoUrl",
              "type": "string"
            }
          ],
          "internalType": "struct Factory.CompanyAccountData",
          "name": "_data",
          "type": "tuple"
        }
      ],
      "name": "deployCompanyAccount",
      "outputs": [
        {
          "internalType": "address",
          "name": "_contract",
          "type": "address"
        }
      ],
      "stateMutability": "nonpayable",
      "type": "function"
    },
    {
      "inputs": [
        {
          "components": [
            {
              "internalType": "string",
              "name": "name",
              "type": "string"
            },
            {
              "internalType": "string",
              "name": "email",
              "type": "string"
            }
          ],
          "internalType": "struct Factory.UserAccountData",
          "name": "_data",
          "type": "tuple"
        }
      ],
      "name": "deployCustomerAccount",
      "outputs": [
        {
          "internalType": "address",
          "name": "_contract",
          "type": "address"
        }
      ],
      "stateMutability": "nonpayable",
      "type": "function"
    },
    {
      "inputs": [
        {
          "internalType": "address",
          "name": "_token",
          "type": "address"
        }
      ],
      "name": "isERC20TokenWhitelisted",
      "outputs": [
        {
          "internalType": "bool",
          "name": "",
          "type": "bool"
        }
      ],
      "stateMutability": "view",
      "type": "function"
    },
    {
      "inputs": [
        {
          "internalType": "address",
          "name": "forwarder",
          "type": "address"
        }
      ],
      "name": "isTrustedForwarder",
      "outputs": [
        {
          "internalType": "bool",
          "name": "",
          "type": "bool"
        }
      ],
      "stateMutability": "view",
      "type": "function"
    },
    {
      "inputs": [],
      "name": "owner",
      "outputs": [
        {
          "internalType": "address",
          "name": "",
          "type": "address"
        }
      ],
      "stateMutability": "view",
      "type": "function"
    },
    {
      "inputs": [],
      "name": "renounceOwnership",
      "outputs": [],
      "stateMutability": "nonpayable",
      "type": "function"
    },
    {
      "inputs": [
        {
          "internalType": "address",
          "name": "newOwner",
          "type": "address"
        }
      ],
      "name": "transferOwnership",
      "outputs": [],
      "stateMutability": "nonpayable",
      "type": "function"
    },
    {
      "inputs": [
        {
          "internalType": "address",
          "name": "_token",
          "type": "address"
        }
      ],
      "name": "whitelistERC20Token",
      "outputs": [],
      "stateMutability": "nonpayable",
      "type": "function"
    },
    {
      "inputs": [
        {
          "internalType": "address",
          "name": "",
          "type": "address"
        }
      ],
      "name": "whitelistedERC20tokens",
      "outputs": [
        {
          "internalType": "bool",
          "name": "",
          "type": "bool"
        }
      ],
      "stateMutability": "view",
      "type": "function"
    },
    {
      "stateMutability": "payable",
      "type": "receive"
    }
  ],
  "bytecode": "0x60a06040526040516145e23803806145e283398101604081905261002291610114565b8061002b61008e565b6001600160a01b03811661005957604051631e4fbdf760e01b81526000600482015260240160405180910390fd5b6100628161009d565b506001600160a01b03908116608052600180546001600160a01b03191692909116919091179055610144565b60006100986100ed565b905090565b600080546001600160a01b038381166001600160a01b0319831681178455604051919092169283917f8be0079c531659141344cd1fd0a4f28419497f9722a3daafe3b4186f6b6457e09190a35050565b6080516000906001600160a01b0316330361010f575060131936013560601c90565b503390565b60006020828403121561012657600080fd5b81516001600160a01b038116811461013d57600080fd5b9392505050565b60805161447c6101666000396000818161010301526106a1015261447c6000f3fe6080604052600436106100bd5760003560e01c80638da5cb5b11610079578063d66ea34611610056578063d66ea3461461027f578063f2fde38b1461029f578063f9178f5f146102bf578063fc3c8723146102ef57005b80638da5cb5b1461022157806393012d201461023f578063af8351191461025f57005b806346daaefb146100c6578063572b6c05146100e65780635e5c06e2146101485780635ffa1ec51461018557806369dc9ff3146101be578063715018a61461020c57005b366100c457005b005b3480156100d257600080fd5b506100c46100e13660046106fb565b61030f565b3480156100f257600080fd5b506101336101013660046106fb565b7f00000000000000000000000000000000000000000000000000000000000000006001600160a01b0390811691161490565b60405190151581526020015b60405180910390f35b34801561015457600080fd5b506101786101633660046106fb565b60026020526000908152604090205460ff1681565b60405161013f9190610741565b34801561019157600080fd5b506101336101a03660046106fb565b6001600160a01b031660009081526004602052604090205460ff1690565b3480156101ca57600080fd5b506101f46101d93660046106fb565b6003602052600090815260409020546001600160a01b031681565b6040516001600160a01b03909116815260200161013f565b34801561021857600080fd5b506100c461033b565b34801561022d57600080fd5b506000546001600160a01b03166101f4565b34801561024b57600080fd5b506101f461025a3660046108a2565b61034f565b34801561026b57600080fd5b506001546101f4906001600160a01b031681565b34801561028b57600080fd5b506100c461029a3660046106fb565b610467565b3480156102ab57600080fd5b506100c46102ba3660046106fb565b610490565b3480156102cb57600080fd5b506101336102da3660046106fb565b60046020526000908152604090205460ff1681565b3480156102fb57600080fd5b506101f461030a3660046108a2565b6104d3565b6103176105e0565b6001600160a01b03166000908152600460205260409020805460ff19166001179055565b6103436105e0565b61034d600061063e565b565b60008061035a61068e565b600154845160208601516040516001600160a01b039093169261037c906106e1565b6103899493929190610925565b604051809103906000f0801580156103a5573d6000803e3d6000fd5b5090506001600260006103b661068e565b6001600160a01b031681526020810191909152604001600020805460ff191660018360028111156103e9576103e961072b565b021790555080600360006103fb61068e565b6001600160a01b039081168252602080830193909352604091820160002080546001600160a01b031916948216949094179093555191831682527f6956c3bdecfc5fcef0ab83d110291d608251270ed15cdffd2c4418d8fe3ee81191015b60405180910390a192915050565b61046f6105e0565b6001600160a01b03166000908152600460205260409020805460ff19169055565b6104986105e0565b6001600160a01b0381166104c757604051631e4fbdf760e01b8152600060048201526024015b60405180910390fd5b6104d08161063e565b50565b6000806104de61068e565b600154845160208601516040516001600160a01b0390931692610500906106ee565b61050d9493929190610925565b604051809103906000f080158015610529573d6000803e3d6000fd5b509050600280600061053961068e565b6001600160a01b031681526020810191909152604001600020805460ff1916600183600281111561056c5761056c61072b565b0217905550806003600061057e61068e565b6001600160a01b039081168252602080830193909352604091820160002080546001600160a01b031916948216949094179093555191831682527f0d72ecc118f021aed2ac9435eaaf355e2e046b87ad8bd00b9f2dd09e6dd7c35f9101610459565b6105e861068e565b6001600160a01b03166106036000546001600160a01b031690565b6001600160a01b03161461034d5761061961068e565b60405163118cdaa760e01b81526001600160a01b0390911660048201526024016104be565b600080546001600160a01b038381166001600160a01b0319831681178455604051919092169283917f8be0079c531659141344cd1fd0a4f28419497f9722a3daafe3b4186f6b6457e09190a35050565b600061069861069d565b905090565b60007f00000000000000000000000000000000000000000000000000000000000000006001600160a01b031633036106dc575060131936013560601c90565b503390565b6116958061096f83390190565b6124438061200483390190565b60006020828403121561070d57600080fd5b81356001600160a01b038116811461072457600080fd5b9392505050565b634e487b7160e01b600052602160045260246000fd5b602081016003831061076357634e487b7160e01b600052602160045260246000fd5b91905290565b634e487b7160e01b600052604160045260246000fd5b600082601f83011261079057600080fd5b813567ffffffffffffffff8111156107aa576107aa610769565b604051601f8201601f19908116603f0116810167ffffffffffffffff811182821017156107d9576107d9610769565b6040528181528382016020018510156107f157600080fd5b816020850160208301376000918101602001919091529392505050565b60006040828403121561082057600080fd5b6040805190810167ffffffffffffffff8111828210171561084357610843610769565b604052905080823567ffffffffffffffff81111561086057600080fd5b61086c8582860161077f565b825250602083013567ffffffffffffffff81111561088957600080fd5b6108958582860161077f565b6020830152505092915050565b6000602082840312156108b457600080fd5b813567ffffffffffffffff8111156108cb57600080fd5b6108d78482850161080e565b949350505050565b6000815180845260005b81811015610905576020818501810151868301820152016108e9565b506000602082860101526020601f19601f83011685010191505092915050565b6001600160a01b03858116825284166020820152608060408201819052600090610951908301856108df565b828103606084015261096381856108df565b97965050505050505056fe60a060405234801561001057600080fd5b5060405161169538038061169583398101604081905261002f916101bd565b82846001600160a01b03811661005f57604051631e4fbdf760e01b81526000600482015260240160405180910390fd5b61006881610098565b506001600160a01b0316608052600161008183826102d1565b50600261008e82826102d1565b505050505061038f565b600080546001600160a01b038381166001600160a01b0319831681178455604051919092169283917f8be0079c531659141344cd1fd0a4f28419497f9722a3daafe3b4186f6b6457e09190a35050565b80516001600160a01b03811681146100ff57600080fd5b919050565b634e487b7160e01b600052604160045260246000fd5b600082601f83011261012b57600080fd5b81516001600160401b0381111561014457610144610104565b604051601f8201601f19908116603f011681016001600160401b038111828210171561017257610172610104565b60405281815283820160200185101561018a57600080fd5b60005b828110156101a95760208186018101518383018201520161018d565b506000918101602001919091529392505050565b600080600080608085870312156101d357600080fd5b6101dc856100e8565b93506101ea602086016100e8565b60408601519093506001600160401b0381111561020657600080fd5b6102128782880161011a565b606087015190935090506001600160401b0381111561023057600080fd5b61023c8782880161011a565b91505092959194509250565b600181811c9082168061025c57607f821691505b60208210810361027c57634e487b7160e01b600052602260045260246000fd5b50919050565b601f8211156102cc57806000526020600020601f840160051c810160208510156102a95750805b601f840160051c820191505b818110156102c957600081556001016102b5565b50505b505050565b81516001600160401b038111156102ea576102ea610104565b6102fe816102f88454610248565b84610282565b6020601f821160018114610332576000831561031a5750848201515b600019600385901b1c1916600184901b1784556102c9565b600084815260208120601f198516915b828110156103625787850151825560209485019460019092019101610342565b50848210156103805786840151600019600387901b60f8161c191681555b50505050600190811b01905550565b6080516112e46103b1600039600081816101c70152610e5801526112e46000f3fe6080604052600436106100e85760003560e01c80636e5cc9551161008a57806385bdc8fe1161005957806385bdc8fe1461028f5780638da5cb5b146102af578063d0e30db0146102d7578063f2fde38b146102df57600080fd5b80636e5cc95514610225578063715018a61461024557806371e154d91461025a578063820e93f51461027a57600080fd5b806344434831116100c6578063444348311461015a578063520a0a791461017a578063572b6c05146101aa578063623da3d1146101f757600080fd5b806306fdde03146100ed57806321e2201a146101185780632e1a7d4d1461013a575b600080fd5b3480156100f957600080fd5b506101026102ff565b60405161010f9190610e98565b60405180910390f35b34801561012457600080fd5b50610138610133366004610f02565b61038d565b005b34801561014657600080fd5b50610138610155366004610f2c565b61053c565b34801561016657600080fd5b50610138610175366004610f02565b610633565b34801561018657600080fd5b5061019a610195366004610f2c565b6107c4565b604051901515815260200161010f565b3480156101b657600080fd5b5061019a6101c5366004610f45565b7f00000000000000000000000000000000000000000000000000000000000000006001600160a01b0390811691161490565b34801561020357600080fd5b50610217610212366004610f02565b610a01565b60405190815260200161010f565b34801561023157600080fd5b50610138610240366004610f02565b610a32565b34801561025157600080fd5b50610138610b21565b34801561026657600080fd5b50610138610275366004610f02565b610b35565b34801561028657600080fd5b50610102610cd1565b34801561029b57600080fd5b506101386102aa36600461100c565b610cde565b3480156102bb57600080fd5b506000546040516001600160a01b03909116815260200161010f565b610138610d1f565b3480156102eb57600080fd5b506101386102fa366004610f45565b610d5c565b6001805461030c906110c7565b80601f0160208091040260200160405190810160405280929190818152602001828054610338906110c7565b80156103855780601f1061035a57610100808354040283529160200191610385565b820191906000526020600020905b81548152906001019060200180831161036857829003601f168201915b505050505081565b610395610d97565b6040516391c57e7360e01b8152600481018290526000906001600160a01b038416906391c57e7390602401602060405180830381865afa1580156103dd573d6000803e3d6000fd5b505050506040513d601f19601f820116820180604052508101906104019190611101565b90506000811161042c5760405162461bcd60e51b81526004016104239061111a565b60405180910390fd5b8047101561044c5760405162461bcd60e51b815260040161042390611151565b604051631520cdf160e01b8152306004820152602481018390526001600160a01b03841690631520cdf19083906044016000604051808303818588803b15801561049557600080fd5b505af1935050505080156104a7575060015b6104f35760405162461bcd60e51b815260206004820152601f60248201527f4661696c656420746f206d616b65206f6e652074696d65207061796d656e74006044820152606401610423565b826001600160a01b03167f728fddafa6a9588807e98acc19b209fb7325300fa3cac333cd5103c8c10f19168260405161052e91815260200190565b60405180910390a25b505050565b610544610d97565b804710156105645760405162461bcd60e51b815260040161042390611151565b600080546040516001600160a01b039091169083908381818185875af1925050503d80600081146105b1576040519150601f19603f3d011682016040523d82523d6000602084013e6105b6565b606091505b50509050806105fc5760405162461bcd60e51b81526020600482015260126024820152714661696c656420746f20776974686472617760701b6044820152606401610423565b6040514781527f4e70a604b23a8edee2b1d0a656e9b9c00b73ad8bb1afc2c59381ee9f69197de79060200160405180910390a15050565b61063b610d97565b6040516391c57e7360e01b8152600481018290526000906001600160a01b038416906391c57e7390602401602060405180830381865afa158015610683573d6000803e3d6000fd5b505050506040513d601f19601f820116820180604052508101906106a79190611101565b9050600081116106c95760405162461bcd60e51b81526004016104239061111a565b804710156106e95760405162461bcd60e51b815260040161042390611151565b604051622cccc560e51b8152600481018390526001600160a01b0384169063059998a09083906024016000604051808303818588803b15801561072b57600080fd5b505af19350505050801561073d575060015b6107895760405162461bcd60e51b815260206004820152601a60248201527f4661696c656420746f2061646420737562736372697074696f6e0000000000006044820152606401610423565b826001600160a01b03167fc8b33f2d95085cb63da31519c3c89d47d6485f47a9ef6040e7ecc96c81534d0d8360405161052e91815260200190565b604051630cc53a6d60e31b81523060048201526024810182905260009081903390636629d36890604401602060405180830381865afa15801561080b573d6000803e3d6000fd5b505050506040513d601f19601f8201168201806040525081019061082f919061117f565b6040516391c57e7360e01b81526004810185905290915060009033906391c57e7390602401602060405180830381865afa158015610871573d6000803e3d6000fd5b505050506040513d601f19601f820116820180604052508101906108959190611101565b9050816108e45760405162461bcd60e51b815260206004820152601a60248201527f537562736372697074696f6e206973206e6f74206163746976650000000000006044820152606401610423565b600081116109045760405162461bcd60e51b81526004016104239061111a565b804710156109245760405162461bcd60e51b815260040161042390611151565b604051631520cdf160e01b8152306004820152602481018590523390631520cdf19083906044016000604051808303818588803b15801561096457600080fd5b505af193505050508015610976575060015b6109c25760405162461bcd60e51b815260206004820152601e60248201527f4661696c656420746f2070617920666f7220737562736372697074696f6e00006044820152606401610423565b60405181815233907f933b45663ad96e847d50499c3cbce55133a62ad2bced2d654becdc785c6d2bb59060200160405180910390a25060019392505050565b60036020528160005260406000208181548110610a1d57600080fd5b90600052602060002001600091509150505481565b610a3a610d97565b604051633487c7ff60e21b8152600481018290526001600160a01b0383169063d21f1ffc90602401600060405180830381600087803b158015610a7c57600080fd5b505af1925050508015610a8d575060015b610ad95760405162461bcd60e51b815260206004820152601d60248201527f4661696c656420746f2063616e63656c20737562736372697074696f6e0000006044820152606401610423565b816001600160a01b03167ffde524b2613ab3c73dc175fadaa3430ae4aa5f9b03d5f6a9273e0e107d70629f82604051610b1491815260200190565b60405180910390a25b5050565b610b29610d97565b610b336000610df5565b565b610b3d610d97565b6040516391c57e7360e01b8152600481018290526000906001600160a01b038416906391c57e7390602401602060405180830381865afa158015610b85573d6000803e3d6000fd5b505050506040513d601f19601f82011682018060405250810190610ba99190611101565b905060008111610bcb5760405162461bcd60e51b81526004016104239061111a565b80471015610beb5760405162461bcd60e51b815260040161042390611151565b604051632fc35a7f60e01b8152600481018390526001600160a01b03841690632fc35a7f9083906024016000604051808303818588803b158015610c2e57600080fd5b505af193505050508015610c40575060015b610c965760405162461bcd60e51b815260206004820152602160248201527f4661696c656420746f207265616374697661746520737562736372697074696f6044820152603760f91b6064820152608401610423565b826001600160a01b03167f93a1f14a38ba5284e86c7058ac6a462a479eab35158dee45f88131e38d43dda38360405161052e91815260200190565b6002805461030c906110c7565b610ce6610d97565b80515115610cff578051600190610cfd90826111ef565b505b60208101515115610d1c576020810151600290610b1d90826111ef565b50565b610d27610d97565b6040513481527f4d6ce1e535dbade1c23defba91e23b8f791ce5edc0cc320257a2b364e4e384269060200160405180910390a1565b610d64610d97565b6001600160a01b038116610d8e57604051631e4fbdf760e01b815260006004820152602401610423565b610d1c81610df5565b610d9f610e45565b6001600160a01b0316610dba6000546001600160a01b031690565b6001600160a01b031614610b3357610dd0610e45565b60405163118cdaa760e01b81526001600160a01b039091166004820152602401610423565b600080546001600160a01b038381166001600160a01b0319831681178455604051919092169283917f8be0079c531659141344cd1fd0a4f28419497f9722a3daafe3b4186f6b6457e09190a35050565b6000610e4f610e54565b905090565b60007f00000000000000000000000000000000000000000000000000000000000000006001600160a01b03163303610e93575060131936013560601c90565b503390565b602081526000825180602084015260005b81811015610ec65760208186018101516040868401015201610ea9565b506000604082850101526040601f19601f83011684010191505092915050565b80356001600160a01b0381168114610efd57600080fd5b919050565b60008060408385031215610f1557600080fd5b610f1e83610ee6565b946020939093013593505050565b600060208284031215610f3e57600080fd5b5035919050565b600060208284031215610f5757600080fd5b610f6082610ee6565b9392505050565b634e487b7160e01b600052604160045260246000fd5b600082601f830112610f8e57600080fd5b813567ffffffffffffffff811115610fa857610fa8610f67565b604051601f8201601f19908116603f0116810167ffffffffffffffff81118282101715610fd757610fd7610f67565b604052818152838201602001851015610fef57600080fd5b816020850160208301376000918101602001919091529392505050565b60006020828403121561101e57600080fd5b813567ffffffffffffffff81111561103557600080fd5b82016040818503121561104757600080fd5b6040805190810167ffffffffffffffff8111828210171561106a5761106a610f67565b604052813567ffffffffffffffff81111561108457600080fd5b61109086828501610f7d565b825250602082013567ffffffffffffffff8111156110ad57600080fd5b6110b986828501610f7d565b602083015250949350505050565b600181811c908216806110db57607f821691505b6020821081036110fb57634e487b7160e01b600052602260045260246000fd5b50919050565b60006020828403121561111357600080fd5b5051919050565b60208082526018908201527f4661696c656420746f2072657472696576652070726963650000000000000000604082015260600190565b602080825260149082015273496e73756666696369656e742062616c616e636560601b604082015260600190565b60006020828403121561119157600080fd5b81518015158114610f6057600080fd5b601f82111561053757806000526020600020601f840160051c810160208510156111c85750805b601f840160051c820191505b818110156111e857600081556001016111d4565b5050505050565b815167ffffffffffffffff81111561120957611209610f67565b61121d8161121784546110c7565b846111a1565b6020601f82116001811461125157600083156112395750848201515b600019600385901b1c1916600184901b1784556111e8565b600084815260208120601f198516915b828110156112815787850151825560209485019460019092019101611261565b508482101561129f5786840151600019600387901b60f8161c191681555b50505050600190811b0190555056fea2646970667358221220086787fcf5c29012964b969b32614778456fb147e95ba57e9e9b9202d5c5418464736f6c634300081a003360a060405234801561001057600080fd5b5060405161244338038061244383398101604081905261002f916101bd565b82846001600160a01b03811661005f57604051631e4fbdf760e01b81526000600482015260240160405180910390fd5b61006881610098565b506001600160a01b0316608052600161008183826102d1565b50600261008e82826102d1565b505050505061038f565b600080546001600160a01b038381166001600160a01b0319831681178455604051919092169283917f8be0079c531659141344cd1fd0a4f28419497f9722a3daafe3b4186f6b6457e09190a35050565b80516001600160a01b03811681146100ff57600080fd5b919050565b634e487b7160e01b600052604160045260246000fd5b600082601f83011261012b57600080fd5b81516001600160401b0381111561014457610144610104565b604051601f8201601f19908116603f011681016001600160401b038111828210171561017257610172610104565b60405281815283820160200185101561018a57600080fd5b60005b828110156101a95760208186018101518383018201520161018d565b506000918101602001919091529392505050565b600080600080608085870312156101d357600080fd5b6101dc856100e8565b93506101ea602086016100e8565b60408601519093506001600160401b0381111561020657600080fd5b6102128782880161011a565b606087015190935090506001600160401b0381111561023057600080fd5b61023c8782880161011a565b91505092959194509250565b600181811c9082168061025c57607f821691505b60208210810361027c57634e487b7160e01b600052602260045260246000fd5b50919050565b601f8211156102cc57806000526020600020601f840160051c810160208510156102a95750805b601f840160051c820191505b818110156102c957600081556001016102b5565b50505b505050565b81516001600160401b038111156102ea576102ea610104565b6102fe816102f88454610248565b84610282565b6020601f821160018114610332576000831561031a5750848201515b600019600385901b1c1916600184901b1784556102c9565b600084815260208120601f198516915b828110156103625787850151825560209485019460019092019101610342565b50848210156103805786840151600019600387901b60f8161c191681555b50505050600190811b01905550565b6080516120926103b1600039600081816102da01526118c401526120926000f3fe60806040526004361061019c5760003560e01c8063715018a6116100ec578063b74d06781161008a578063d0e30db011610064578063d0e30db01461054a578063d21f1ffc14610552578063e212e2ba14610572578063f2fde38b1461058757600080fd5b8063b74d0678146104e8578063c29b2f2014610508578063cb51bba91461052a57600080fd5b806391c57e73116100c657806391c57e7314610473578063993d77af146104a0578063a8d81fb4146104b5578063b0501c30146104c857600080fd5b8063715018a61461040857806374f7ad891461041d5780638da5cb5b1461045557600080fd5b8063572b6c0511610159578063641e780a11610133578063641e780a1461036757806365067d60146103875780636629d368146103ba5780636a433a8c146103da57600080fd5b8063572b6c05146102bd5780635be9e5091461031a5780635cbd47e31461033a57600080fd5b8063059998a0146101a157806306fdde03146101b65780632e1a7d4d146101e15780632fc35a7f146101f45780633679fb1614610207578063508f938814610227575b600080fd5b6101b46101af366004611904565b6105a7565b005b3480156101c257600080fd5b506101cb610814565b6040516101d8919061196d565b60405180910390f35b6101b46101ef366004611904565b6108a2565b6101b4610202366004611904565b6109b9565b34801561021357600080fd5b506101b4610222366004611b45565b610b58565b34801561023357600080fd5b50610289610242366004611ba2565b6007602090815260009283526040808420909152908252902080546001820154600283015460038401546004909401546001600160a01b0390931693919290919060ff1685565b604080516001600160a01b03909616865260208601949094529284019190915260608301521515608082015260a0016101d8565b3480156102c957600080fd5b5061030a6102d8366004611bcc565b7f00000000000000000000000000000000000000000000000000000000000000006001600160a01b0390811691161490565b60405190151581526020016101d8565b34801561032657600080fd5b506101b4610335366004611904565b610c24565b34801561034657600080fd5b5061035a610355366004611904565b610c7c565b6040516101d89190611c68565b34801561037357600080fd5b506101b4610382366004611c7b565b610ecc565b34801561039357600080fd5b506103a76103a2366004611904565b610f0f565b6040516101d89796959493929190611d32565b3480156103c657600080fd5b5061030a6103d5366004611ba2565b6110ea565b3480156103e657600080fd5b506103fa6103f5366004611ba2565b61111b565b6040519081526020016101d8565b34801561041457600080fd5b506101b461114c565b34801561042957600080fd5b5061043d610438366004611904565b611160565b6040516001600160a01b0390911681526020016101d8565b34801561046157600080fd5b506000546001600160a01b031661043d565b34801561047f57600080fd5b506103fa61048e366004611904565b60009081526005602052604090205490565b3480156104ac57600080fd5b506101cb61118a565b6101b46104c3366004611904565b611197565b3480156104d457600080fd5b506101b46104e3366004611d90565b611262565b3480156104f457600080fd5b506101b4610503366004611904565b6113e9565b34801561051457600080fd5b5061051d61143c565b6040516101d89190611dcc565b34801561053657600080fd5b506103fa610545366004611904565b611494565b6101b46114b5565b34801561055e57600080fd5b506101b461056d366004611904565b6114f2565b34801561057e57600080fd5b506101b461154a565b34801561059357600080fd5b506101b46105a2366004611bcc565b6116e4565b60008181526005602052604090206001015460ff166105e15760405162461bcd60e51b81526004016105d890611e0f565b60405180910390fd5b6000818152600560208190526040909120015460ff1661063e5760405162461bcd60e51b815260206004820152601860248201527750726f64756374206973206e6f7420726563757272696e6760401b60448201526064016105d8565b60008181526005602052604090205434146106945760405162461bcd60e51b8152602060048201526016602482015275125b9d985b1a59081c185e5b595b9d08185b5bdd5b9d60521b60448201526064016105d8565b33600090815260076020908152604080832084845290915290206004015460ff16156107025760405162461bcd60e51b815260206004820152601e60248201527f537562736372697074696f6e20697320616c726561647920616374697665000060448201526064016105d8565b336000818152600660208181526040808420805460018101825590855282852001869055805160a081018252948552848201869052428582018190528685526005909252832090910154919291606083019161075e9190611e46565b815260016020918201819052336000818152600784526040808220888352855290819020855181546001600160a01b0319166001600160a01b0390911617815585850151938101939093558481015160028401556060850151600384015560808501516004909301805460ff19169315159390931790925581519081529182018590529192507fcd300d0b4b2fbda451a06cbd8f117f33642917fcfeef5f48b7b49c7f32af3cb091015b60405180910390a15050565b6001805461082190611e67565b80601f016020809104026020016040519081016040528092919081815260200182805461084d90611e67565b801561089a5780601f1061086f5761010080835404028352916020019161089a565b820191906000526020600020905b81548152906001019060200180831161087d57829003601f168201915b505050505081565b6108aa61171f565b804710156108f15760405162461bcd60e51b8152602060048201526014602482015273496e73756666696369656e742062616c616e636560601b60448201526064016105d8565b600080546040516001600160a01b039091169083908381818185875af1925050503d806000811461093e576040519150601f19603f3d011682016040523d82523d6000602084013e610943565b606091505b50509050806109895760405162461bcd60e51b81526020600482015260126024820152714661696c656420746f20776974686472617760701b60448201526064016105d8565b6040514781527f4e70a604b23a8edee2b1d0a656e9b9c00b73ad8bb1afc2c59381ee9f69197de790602001610808565b60008181526005602052604090206001015460ff166109ea5760405162461bcd60e51b81526004016105d890611e0f565b6000818152600560208190526040909120015460ff16610a475760405162461bcd60e51b815260206004820152601860248201527750726f64756374206973206e6f7420726563757272696e6760401b60448201526064016105d8565b33600090815260076020908152604080832084845290915290206004015460ff1615610ab55760405162461bcd60e51b815260206004820152601e60248201527f537562736372697074696f6e20697320616c726561647920616374697665000060448201526064016105d8565b336000908152600760209081526040808320848452825280832060048101805460ff19166001179055426002909101819055600590925290912060060154610afc91611e46565b3360008181526007602090815260408083208684528252918290206003019390935580519182529181018390527fcd300d0b4b2fbda451a06cbd8f117f33642917fcfeef5f48b7b49c7f32af3cb091015b60405180910390a150565b610b6061171f565b600082815260056020908152604091829020835181559083015160018201805460ff1916911515919091179055908201518291906002820190610ba39082611ef0565b5060608201516003820190610bb89082611ef0565b5060808201516004820190610bcd9082611ef0565b5060a082015160058201805460ff191691151591909117905560c0909101516006909101556040517ff65af99e8bbf49883b49eee2fce3724903e2fe8a9b931e6007345cab7b7b66b0906108089084908490611fae565b610c2c61171f565b600081815260056020526040908190206001908101805460ff19169091179055517f0221dd47eb498ba82348a47d47c8ddb17a38ec4c871f974f2cfe9d1f0f52732290610b4d9083815260200190565b610cc06040518060e0016040528060008152602001600015158152602001606081526020016060815260200160608152602001600015158152602001600081525090565b600082815260056020908152604091829020825160e08101845281548152600182015460ff161515928101929092526002810180549293919291840191610d0690611e67565b80601f0160208091040260200160405190810160405280929190818152602001828054610d3290611e67565b8015610d7f5780601f10610d5457610100808354040283529160200191610d7f565b820191906000526020600020905b815481529060010190602001808311610d6257829003601f168201915b50505050508152602001600382018054610d9890611e67565b80601f0160208091040260200160405190810160405280929190818152602001828054610dc490611e67565b8015610e115780601f10610de657610100808354040283529160200191610e11565b820191906000526020600020905b815481529060010190602001808311610df457829003601f168201915b50505050508152602001600482018054610e2a90611e67565b80601f0160208091040260200160405190810160405280929190818152602001828054610e5690611e67565b8015610ea35780601f10610e7857610100808354040283529160200191610ea3565b820191906000526020600020905b815481529060010190602001808311610e8657829003601f168201915b5050509183525050600582015460ff161515602082015260069091015460409091015292915050565b610ed461171f565b80515115610eed578051600190610eeb9082611ef0565b505b60208101515115610f0c576020810151600290610f0a9082611ef0565b505b50565b600560205260009081526040902080546001820154600283018054929360ff90921692610f3b90611e67565b80601f0160208091040260200160405190810160405280929190818152602001828054610f6790611e67565b8015610fb45780601f10610f8957610100808354040283529160200191610fb4565b820191906000526020600020905b815481529060010190602001808311610f9757829003601f168201915b505050505090806003018054610fc990611e67565b80601f0160208091040260200160405190810160405280929190818152602001828054610ff590611e67565b80156110425780601f1061101757610100808354040283529160200191611042565b820191906000526020600020905b81548152906001019060200180831161102557829003601f168201915b50505050509080600401805461105790611e67565b80601f016020809104026020016040519081016040528092919081815260200182805461108390611e67565b80156110d05780601f106110a5576101008083540402835291602001916110d0565b820191906000526020600020905b8154815290600101906020018083116110b357829003601f168201915b505050506005830154600690930154919260ff1691905087565b6001600160a01b038216600090815260076020908152604080832084845290915290206004015460ff165b92915050565b6006602052816000526040600020818154811061113757600080fd5b90600052602060002001600091509150505481565b61115461171f565b61115e600061177d565b565b6004818154811061117057600080fd5b6000918252602090912001546001600160a01b0316905081565b6002805461082190611e67565b60008181526005602052604090206001015460ff166111c85760405162461bcd60e51b81526004016105d890611e0f565b600081815260056020526040902054341461121e5760405162461bcd60e51b8152602060048201526016602482015275125b9d985b1a59081c185e5b595b9d08185b5bdd5b9d60521b60448201526064016105d8565b600081815260056020908152604091829020548251338152918201527f6ef95f06320e7a25a04a175ca677b7052bdd97131872c2192525a629f51be7709101610b4d565b61126a61171f565b80516112b85760405162461bcd60e51b815260206004820152601c60248201527f5072696365206d7573742062652067726561746572207468616e20300000000060448201526064016105d8565b6000308260400151836060015184608001516040516020016112dd9493929190611fc7565b60408051808303601f190181529181528151602092830120600081815260058452829020855181559285015160018401805460ff19169115159190911790559084015190925083919060028201906113359082611ef0565b506060820151600382019061134a9082611ef0565b506080820151600482019061135f9082611ef0565b5060a082015160058201805460ff191691151591909117905560c090910151600690910155600380546001810182556000919091527fc2575a0e9e593c00f959f8c92f12db2869c3395a3b0502d05e2516446f71f85b018190556040517f0d842a2104c5523f1abed8ed90ddd7c8ea241e2d33a254c3a2ef82fba53a3bff90610808908490611c68565b6113f161171f565b60008181526005602052604090819020600101805460ff19169055517f086b62d1e10d1596437c9c3fc03767f4bd59405e68b13db811f51683f9bf191490610b4d9083815260200190565b6060600380548060200260200160405190810160405280929190818152602001828054801561148a57602002820191906000526020600020905b815481526020019060010190808311611476575b5050505050905090565b600381815481106114a457600080fd5b600091825260209091200154905081565b6114bd61171f565b6040513481527f4d6ce1e535dbade1c23defba91e23b8f791ce5edc0cc320257a2b364e4e384269060200160405180910390a1565b336000818152600760209081526040808320858452825291829020600401805460ff19169055815192835282018390527f1f8051ad8eb9da0dd3a2f6e6fd127e926ae95be881102ff1822bd596a6978a1d9101610b4d565b61155261171f565b60005b600454811015610f0c5760006004828154811061157457611574612029565b60009182526020822001546001600160a01b03169150611593826117cd565b905060005b81518110156116d95760008282815181106115b5576115b5612029565b6020026020010151905060006115f185836001600160a01b03919091166000908152600760209081526040808320938352929052206003015490565b905060006115ff86846110ea565b905042821115801561160e5750805b156116ce5760405163520a0a7960e01b8152600481018490526000906001600160a01b0388169063520a0a79906024016020604051808303816000875af115801561165d573d6000803e3d6000fd5b505050506040513d601f19601f82011682018060405250810190611681919061203f565b905080156116cc57604080516001600160a01b0389168152602081018690527f529f17508ccd42a0bd8798a341befae8fca1137e3e1f1edfac9eb7e25f6cc636910160405180910390a15b505b505050600101611598565b505050600101611555565b6116ec61171f565b6001600160a01b03811661171657604051631e4fbdf760e01b8152600060048201526024016105d8565b610f0c8161177d565b6117276118b1565b6001600160a01b03166117426000546001600160a01b031690565b6001600160a01b03161461115e576117586118b1565b60405163118cdaa760e01b81526001600160a01b0390911660048201526024016105d8565b600080546001600160a01b038381166001600160a01b0319831681178455604051919092169283917f8be0079c531659141344cd1fd0a4f28419497f9722a3daafe3b4186f6b6457e09190a35050565b6001600160a01b038116600090815260066020526040812054606091906001600160401b0381111561180157611801611987565b60405190808252806020026020018201604052801561182a578160200160208202803683370190505b50905060005b6001600160a01b0384166000908152600660205260409020548110156118aa576001600160a01b038416600090815260066020526040902080548290811061187a5761187a612029565b906000526020600020015482828151811061189757611897612029565b6020908102919091010152600101611830565b5092915050565b60006118bb6118c0565b905090565b60007f00000000000000000000000000000000000000000000000000000000000000006001600160a01b031633036118ff575060131936013560601c90565b503390565b60006020828403121561191657600080fd5b5035919050565b60005b83811015611938578181015183820152602001611920565b50506000910152565b6000815180845261195981602086016020860161191d565b601f01601f19169290920160200192915050565b6020815260006119806020830184611941565b9392505050565b634e487b7160e01b600052604160045260246000fd5b60405160e081016001600160401b03811182821017156119bf576119bf611987565b60405290565b8015158114610f0c57600080fd5b80356119de816119c5565b919050565b600082601f8301126119f457600080fd5b81356001600160401b03811115611a0d57611a0d611987565b604051601f8201601f19908116603f011681016001600160401b0381118282101715611a3b57611a3b611987565b604052818152838201602001851015611a5357600080fd5b816020850160208301376000918101602001919091529392505050565b600060e08284031215611a8257600080fd5b611a8a61199d565b823581529050611a9c602083016119d3565b602082015260408201356001600160401b03811115611aba57600080fd5b611ac6848285016119e3565b60408301525060608201356001600160401b03811115611ae557600080fd5b611af1848285016119e3565b60608301525060808201356001600160401b03811115611b1057600080fd5b611b1c848285016119e3565b608083015250611b2e60a083016119d3565b60a082015260c09182013591810191909152919050565b60008060408385031215611b5857600080fd5b8235915060208301356001600160401b03811115611b7557600080fd5b611b8185828601611a70565b9150509250929050565b80356001600160a01b03811681146119de57600080fd5b60008060408385031215611bb557600080fd5b611bbe83611b8b565b946020939093013593505050565b600060208284031215611bde57600080fd5b61198082611b8b565b805182526020810151151560208301526000604082015160e06040850152611c1260e0850182611941565b905060608301518482036060860152611c2b8282611941565b91505060808301518482036080860152611c458282611941565b91505060a0830151151560a085015260c083015160c08501528091505092915050565b6020815260006119806020830184611be7565b600060208284031215611c8d57600080fd5b81356001600160401b03811115611ca357600080fd5b820160408185031215611cb557600080fd5b604080519081016001600160401b0381118282101715611cd757611cd7611987565b60405281356001600160401b03811115611cf057600080fd5b611cfc868285016119e3565b82525060208201356001600160401b03811115611d1857600080fd5b611d24868285016119e3565b602083015250949350505050565b878152861515602082015260e060408201526000611d5360e0830188611941565b8281036060840152611d658188611941565b90508281036080840152611d798187611941565b94151560a0840152505060c0015295945050505050565b600060208284031215611da257600080fd5b81356001600160401b03811115611db857600080fd5b611dc484828501611a70565b949350505050565b602080825282518282018190526000918401906040840190835b81811015611e04578351835260209384019390920191600101611de6565b509095945050505050565b60208082526018908201527f50726f64756374206973206e6f7420617661696c61626c650000000000000000604082015260600190565b8082018082111561111557634e487b7160e01b600052601160045260246000fd5b600181811c90821680611e7b57607f821691505b602082108103611e9b57634e487b7160e01b600052602260045260246000fd5b50919050565b601f821115611eeb57806000526020600020601f840160051c81016020851015611ec85750805b601f840160051c820191505b81811015611ee85760008155600101611ed4565b50505b505050565b81516001600160401b03811115611f0957611f09611987565b611f1d81611f178454611e67565b84611ea1565b6020601f821160018114611f515760008315611f395750848201515b600019600385901b1c1916600184901b178455611ee8565b600084815260208120601f198516915b82811015611f815787850151825560209485019460019092019101611f61565b5084821015611f9f5786840151600019600387901b60f8161c191681555b50505050600190811b01905550565b828152604060208201526000611dc46040830184611be7565b6bffffffffffffffffffffffff198560601b16815260008451611ff181601485016020890161191d565b84519083019061200881601484016020890161191d565b845191016014019061201e81836020880161191d565b019695505050505050565b634e487b7160e01b600052603260045260246000fd5b60006020828403121561205157600080fd5b8151611980816119c556fea2646970667358221220578907b8bc1a5d8b9fe4971e15934dc46e0d3231420d63e5d1f78369bbc0bb6f64736f6c634300081a0033a2646970667358221220965491bd917a0ca3d84494156717129e3a4d06244ec1539faa9ef8c14fe7a31964736f6c634300081a0033",
  "linkReferences": {},
  "deployedLinkReferences": {}
}